{
  "address": "0x015Ea62961dd2eE531158adb38B998F37510075C",
  "abi": [
    {
      "inputs": [],
      "stateMutability": "nonpayable",
      "type": "constructor"
    },
    {
      "anonymous": false,
      "inputs": [
        {
          "indexed": false,
          "internalType": "address",
          "name": "buyer",
          "type": "address"
        },
        {
          "indexed": false,
          "internalType": "uint256",
          "name": "orderId",
          "type": "uint256"
        },
        {
          "indexed": false,
          "internalType": "uint256",
          "name": "itemId",
          "type": "uint256"
        }
      ],
      "name": "Buy",
      "type": "event"
    },
    {
      "anonymous": false,
      "inputs": [
        {
          "indexed": false,
          "internalType": "string",
          "name": "name",
          "type": "string"
        },
        {
          "indexed": false,
          "internalType": "uint256",
          "name": "cost",
          "type": "uint256"
        }
      ],
      "name": "List",
      "type": "event"
    },
    {
      "inputs": [
        {
          "internalType": "uint256",
          "name": "_id",
          "type": "uint256"
        }
      ],
      "name": "buy",
      "outputs": [],
      "stateMutability": "payable",
      "type": "function"
    },
    {
      "inputs": [
        {
          "internalType": "uint256",
          "name": "",
          "type": "uint256"
        }
      ],
      "name": "items",
      "outputs": [
        {
          "internalType": "uint256",
          "name": "id",
          "type": "uint256"
        },
        {
          "internalType": "string",
          "name": "name",
          "type": "string"
        },
        {
          "internalType": "string",
          "name": "category",
          "type": "string"
        },
        {
          "internalType": "string",
          "name": "image",
          "type": "string"
        },
        {
          "internalType": "uint256",
          "name": "cost",
          "type": "uint256"
        },
        {
          "internalType": "uint256",
          "name": "rating",
          "type": "uint256"
        },
        {
          "internalType": "string",
          "name": "description",
          "type": "string"
        }
      ],
      "stateMutability": "view",
      "type": "function"
    },
    {
      "inputs": [
        {
          "internalType": "uint256",
          "name": "_id",
          "type": "uint256"
        },
        {
          "internalType": "string",
          "name": "_name",
          "type": "string"
        },
        {
          "internalType": "string",
          "name": "_category",
          "type": "string"
        },
        {
          "internalType": "string",
          "name": "_image",
          "type": "string"
        },
        {
          "internalType": "uint256",
          "name": "_cost",
          "type": "uint256"
        },
        {
          "internalType": "uint256",
          "name": "_rating",
          "type": "uint256"
        },
        {
          "internalType": "string",
          "name": "_description",
          "type": "string"
        }
      ],
      "name": "list",
      "outputs": [],
      "stateMutability": "nonpayable",
      "type": "function"
    },
    {
      "inputs": [
        {
          "internalType": "address",
          "name": "",
          "type": "address"
        }
      ],
      "name": "orderCount",
      "outputs": [
        {
          "internalType": "uint256",
          "name": "",
          "type": "uint256"
        }
      ],
      "stateMutability": "view",
      "type": "function"
    },
    {
      "inputs": [
        {
          "internalType": "address",
          "name": "",
          "type": "address"
        },
        {
          "internalType": "uint256",
          "name": "",
          "type": "uint256"
        }
      ],
      "name": "orders",
      "outputs": [
        {
          "internalType": "uint256",
          "name": "time",
          "type": "uint256"
        },
        {
          "components": [
            {
              "internalType": "uint256",
              "name": "id",
              "type": "uint256"
            },
            {
              "internalType": "string",
              "name": "name",
              "type": "string"
            },
            {
              "internalType": "string",
              "name": "category",
              "type": "string"
            },
            {
              "internalType": "string",
              "name": "image",
              "type": "string"
            },
            {
              "internalType": "uint256",
              "name": "cost",
              "type": "uint256"
            },
            {
              "internalType": "uint256",
              "name": "rating",
              "type": "uint256"
            },
            {
              "internalType": "string",
              "name": "description",
              "type": "string"
            }
          ],
          "internalType": "struct YourContract.Item",
          "name": "item",
          "type": "tuple"
        }
      ],
      "stateMutability": "view",
      "type": "function"
    },
    {
      "inputs": [],
      "name": "owner",
      "outputs": [
        {
          "internalType": "address",
          "name": "",
          "type": "address"
        }
      ],
      "stateMutability": "view",
      "type": "function"
    },
    {
      "inputs": [],
      "name": "withdraw",
      "outputs": [],
      "stateMutability": "nonpayable",
      "type": "function"
    }
  ],
  "transactionHash": "0x3e28fdaf285971ef316a750576ad1bdaebfeaf8aad73e9503c562b537f82e851",
  "args": [],
  "numDeployments": 1,
  "solcInputHash": "335a02ca4893b8ab3c0a0864be297049",
  "bytecode": "0x608060405234801561001057600080fd5b50600080546001600160a01b031916331790556110ee806100326000396000f3fe6080604052600436106100705760003560e01c8063793b8c6d1161004e578063793b8c6d146100ec5780638da5cb5b1461011a578063bfb231d214610152578063d96a094a1461018557600080fd5b80633ccfd60b146100755780633d4df98a1461008c578063713d856b146100ac575b600080fd5b34801561008157600080fd5b5061008a610198565b005b34801561009857600080fd5b5061008a6100a7366004610c83565b610212565b3480156100b857600080fd5b506100d96100c7366004610d69565b60036020526000908152604090205481565b6040519081526020015b60405180910390f35b3480156100f857600080fd5b5061010c610107366004610d8b565b610322565b6040516100e3929190610dfb565b34801561012657600080fd5b5060005461013a906001600160a01b031681565b6040516001600160a01b0390911681526020016100e3565b34801561015e57600080fd5b5061017261016d366004610ea0565b6105c3565b6040516100e39796959493929190610eb9565b61008a610193366004610ea0565b61081d565b6000546001600160a01b031633146101af57600080fd5b600080546040516001600160a01b039091169047908381818185875af1925050503d80600081146101fc576040519150601f19603f3d011682016040523d82523d6000602084013e610201565b606091505b505090508061020f57600080fd5b50565b6000546001600160a01b0316331461022957600080fd5b6040805160e0810182528881526020808201898152828401899052606083018890526080830187905260a0830186905260c0830185905260008b8152600192839052939093208251815592519192839290918201906102889082610faf565b506040820151600282019061029d9082610faf565b50606082015160038201906102b29082610faf565b506080820151600482015560a0820151600582015560c082015160068201906102db9082610faf565b509050507f6777458730c06ba2ecf56a9f5a54676fc11f8b7da73424b020dd4dc6630f5fc0878560405161031092919061106f565b60405180910390a15050505050505050565b600260205281600052604060002060205280600052604060002060009150915050806000015490806001016040518060e00160405290816000820154815260200160018201805461037290610f26565b80601f016020809104026020016040519081016040528092919081815260200182805461039e90610f26565b80156103eb5780601f106103c0576101008083540402835291602001916103eb565b820191906000526020600020905b8154815290600101906020018083116103ce57829003601f168201915b5050505050815260200160028201805461040490610f26565b80601f016020809104026020016040519081016040528092919081815260200182805461043090610f26565b801561047d5780601f106104525761010080835404028352916020019161047d565b820191906000526020600020905b81548152906001019060200180831161046057829003601f168201915b5050505050815260200160038201805461049690610f26565b80601f01602080910402602001604051908101604052809291908181526020018280546104c290610f26565b801561050f5780601f106104e45761010080835404028352916020019161050f565b820191906000526020600020905b8154815290600101906020018083116104f257829003601f168201915b50505050508152602001600482015481526020016005820154815260200160068201805461053c90610f26565b80601f016020809104026020016040519081016040528092919081815260200182805461056890610f26565b80156105b55780601f1061058a576101008083540402835291602001916105b5565b820191906000526020600020905b81548152906001019060200180831161059857829003601f168201915b505050505081525050905082565b6001602081905260009182526040909120805491810180546105e490610f26565b80601f016020809104026020016040519081016040528092919081815260200182805461061090610f26565b801561065d5780601f106106325761010080835404028352916020019161065d565b820191906000526020600020905b81548152906001019060200180831161064057829003601f168201915b50505050509080600201805461067290610f26565b80601f016020809104026020016040519081016040528092919081815260200182805461069e90610f26565b80156106eb5780601f106106c0576101008083540402835291602001916106eb565b820191906000526020600020905b8154815290600101906020018083116106ce57829003601f168201915b50505050509080600301805461070090610f26565b80601f016020809104026020016040519081016040528092919081815260200182805461072c90610f26565b80156107795780601f1061074e57610100808354040283529160200191610779565b820191906000526020600020905b81548152906001019060200180831161075c57829003601f168201915b50505050509080600401549080600501549080600601805461079a90610f26565b80601f01602080910402602001604051908101604052809291908181526020018280546107c690610f26565b80156108135780601f106107e857610100808354040283529160200191610813565b820191906000526020600020905b8154815290600101906020018083116107f657829003601f168201915b5050505050905087565b6000818152600160208181526040808420815160e0810190925280548252928301805491939284019161084f90610f26565b80601f016020809104026020016040519081016040528092919081815260200182805461087b90610f26565b80156108c85780601f1061089d576101008083540402835291602001916108c8565b820191906000526020600020905b8154815290600101906020018083116108ab57829003601f168201915b505050505081526020016002820180546108e190610f26565b80601f016020809104026020016040519081016040528092919081815260200182805461090d90610f26565b801561095a5780601f1061092f5761010080835404028352916020019161095a565b820191906000526020600020905b81548152906001019060200180831161093d57829003601f168201915b5050505050815260200160038201805461097390610f26565b80601f016020809104026020016040519081016040528092919081815260200182805461099f90610f26565b80156109ec5780601f106109c1576101008083540402835291602001916109ec565b820191906000526020600020905b8154815290600101906020018083116109cf57829003601f168201915b505050505081526020016004820154815260200160058201548152602001600682018054610a1990610f26565b80601f0160208091040260200160405190810160405280929190818152602001828054610a4590610f26565b8015610a925780601f10610a6757610100808354040283529160200191610a92565b820191906000526020600020905b815481529060010190602001808311610a7557829003601f168201915b50505050508152505090508060800151341015610aae57600080fd5b6040805180820182524281526020808201849052336000908152600390915291822080549192610add83611091565b909155505033600090815260026020818152604080842060038352818520548552825290922083518155828401518051600183019081559381015185949293919291840190610b2c9082610faf565b5060408201516002820190610b419082610faf565b5060608201516003820190610b569082610faf565b506080820151600482015560a0820151600582015560c08201516006820190610b7f9082610faf565b505033600081815260036020908152604091829020548851835194855291840152908201527f1cbc5ab135991bd2b6a4b034a04aa2aa086dac1371cb9b16b8b5e2ed6b036bed93506060019150610bd39050565b60405180910390a1505050565b634e487b7160e01b600052604160045260246000fd5b600082601f830112610c0757600080fd5b813567ffffffffffffffff80821115610c2257610c22610be0565b604051601f8301601f19908116603f01168101908282118183101715610c4a57610c4a610be0565b81604052838152866020858801011115610c6357600080fd5b836020870160208301376000602085830101528094505050505092915050565b600080600080600080600060e0888a031215610c9e57600080fd5b87359650602088013567ffffffffffffffff80821115610cbd57600080fd5b610cc98b838c01610bf6565b975060408a0135915080821115610cdf57600080fd5b610ceb8b838c01610bf6565b965060608a0135915080821115610d0157600080fd5b610d0d8b838c01610bf6565b955060808a0135945060a08a0135935060c08a0135915080821115610d3157600080fd5b50610d3e8a828b01610bf6565b91505092959891949750929550565b80356001600160a01b0381168114610d6457600080fd5b919050565b600060208284031215610d7b57600080fd5b610d8482610d4d565b9392505050565b60008060408385031215610d9e57600080fd5b610da783610d4d565b946020939093013593505050565b6000815180845260005b81811015610ddb57602081850181015186830182015201610dbf565b506000602082860101526020601f19601f83011685010191505092915050565b82815260406020820152815160408201526000602083015160e06060840152610e28610120840182610db5565b90506040840151603f1980858403016080860152610e468383610db5565b925060608601519150808584030160a0860152610e638383610db5565b9250608086015160c086015260a086015160e086015260c08601519150808584030161010086015250610e968282610db5565b9695505050505050565b600060208284031215610eb257600080fd5b5035919050565b87815260e060208201526000610ed260e0830189610db5565b8281036040840152610ee48189610db5565b90508281036060840152610ef88188610db5565b90508560808401528460a084015282810360c0840152610f188185610db5565b9a9950505050505050505050565b600181811c90821680610f3a57607f821691505b602082108103610f5a57634e487b7160e01b600052602260045260246000fd5b50919050565b601f821115610faa57600081815260208120601f850160051c81016020861015610f875750805b601f850160051c820191505b81811015610fa657828155600101610f93565b5050505b505050565b815167ffffffffffffffff811115610fc957610fc9610be0565b610fdd81610fd78454610f26565b84610f60565b602080601f8311600181146110125760008415610ffa5750858301515b600019600386901b1c1916600185901b178555610fa6565b600085815260208120601f198616915b8281101561104157888601518255948401946001909101908401611022565b508582101561105f5787850151600019600388901b60f8161c191681555b5050505050600190811b01905550565b6040815260006110826040830185610db5565b90508260208301529392505050565b6000600182016110b157634e487b7160e01b600052601160045260246000fd5b506001019056fea26469706673582212207c5591a624cc3a6c1d70e78279fe7fcbe2a09cbb029845ca121b328978b7b05e64736f6c63430008110033",
  "devdoc": {
    "kind": "dev",
    "methods": {},
    "version": 1
  },
  "userdoc": {
    "kind": "user",
    "methods": {},
    "version": 1
  },
  "storageLayout": {
    "storage": [
      {
        "astId": 3,
        "contract": "contracts/YourContract.sol:YourContract",
        "label": "owner",
        "offset": 0,
        "slot": "0",
        "type": "t_address"
      },
      {
        "astId": 29,
        "contract": "contracts/YourContract.sol:YourContract",
        "label": "items",
        "offset": 0,
        "slot": "1",
        "type": "t_mapping(t_uint256,t_struct(Item)18_storage)"
      },
      {
        "astId": 36,
        "contract": "contracts/YourContract.sol:YourContract",
        "label": "orders",
        "offset": 0,
        "slot": "2",
        "type": "t_mapping(t_address,t_mapping(t_uint256,t_struct(Order)24_storage))"
      },
      {
        "astId": 40,
        "contract": "contracts/YourContract.sol:YourContract",
        "label": "orderCount",
        "offset": 0,
        "slot": "3",
        "type": "t_mapping(t_address,t_uint256)"
      }
    ],
    "types": {
      "t_address": {
        "encoding": "inplace",
        "label": "address",
        "numberOfBytes": "20"
      },
      "t_mapping(t_address,t_mapping(t_uint256,t_struct(Order)24_storage))": {
        "encoding": "mapping",
        "key": "t_address",
        "label": "mapping(address => mapping(uint256 => struct YourContract.Order))",
        "numberOfBytes": "32",
        "value": "t_mapping(t_uint256,t_struct(Order)24_storage)"
      },
      "t_mapping(t_address,t_uint256)": {
        "encoding": "mapping",
        "key": "t_address",
        "label": "mapping(address => uint256)",
        "numberOfBytes": "32",
        "value": "t_uint256"
      },
      "t_mapping(t_uint256,t_struct(Item)18_storage)": {
        "encoding": "mapping",
        "key": "t_uint256",
        "label": "mapping(uint256 => struct YourContract.Item)",
        "numberOfBytes": "32",
        "value": "t_struct(Item)18_storage"
      },
      "t_mapping(t_uint256,t_struct(Order)24_storage)": {
        "encoding": "mapping",
        "key": "t_uint256",
        "label": "mapping(uint256 => struct YourContract.Order)",
        "numberOfBytes": "32",
        "value": "t_struct(Order)24_storage"
      },
      "t_string_storage": {
        "encoding": "bytes",
        "label": "string",
        "numberOfBytes": "32"
      },
      "t_struct(Item)18_storage": {
        "encoding": "inplace",
        "label": "struct YourContract.Item",
        "members": [
          {
            "astId": 5,
            "contract": "contracts/YourContract.sol:YourContract",
            "label": "id",
            "offset": 0,
            "slot": "0",
            "type": "t_uint256"
          },
          {
            "astId": 7,
            "contract": "contracts/YourContract.sol:YourContract",
            "label": "name",
            "offset": 0,
            "slot": "1",
            "type": "t_string_storage"
          },
          {
            "astId": 9,
            "contract": "contracts/YourContract.sol:YourContract",
            "label": "category",
            "offset": 0,
            "slot": "2",
            "type": "t_string_storage"
          },
          {
            "astId": 11,
            "contract": "contracts/YourContract.sol:YourContract",
            "label": "image",
            "offset": 0,
            "slot": "3",
            "type": "t_string_storage"
          },
          {
            "astId": 13,
            "contract": "contracts/YourContract.sol:YourContract",
            "label": "cost",
            "offset": 0,
            "slot": "4",
            "type": "t_uint256"
          },
          {
            "astId": 15,
            "contract": "contracts/YourContract.sol:YourContract",
            "label": "rating",
            "offset": 0,
            "slot": "5",
            "type": "t_uint256"
          },
          {
            "astId": 17,
            "contract": "contracts/YourContract.sol:YourContract",
            "label": "description",
            "offset": 0,
            "slot": "6",
            "type": "t_string_storage"
          }
        ],
        "numberOfBytes": "224"
      },
      "t_struct(Order)24_storage": {
        "encoding": "inplace",
        "label": "struct YourContract.Order",
        "members": [
          {
            "astId": 20,
            "contract": "contracts/YourContract.sol:YourContract",
            "label": "time",
            "offset": 0,
            "slot": "0",
            "type": "t_uint256"
          },
          {
            "astId": 23,
            "contract": "contracts/YourContract.sol:YourContract",
            "label": "item",
            "offset": 0,
            "slot": "1",
            "type": "t_struct(Item)18_storage"
          }
        ],
        "numberOfBytes": "256"
      },
      "t_uint256": {
        "encoding": "inplace",
        "label": "uint256",
        "numberOfBytes": "32"
      }
    }
  }
}